:020000040800F2
:1000000000A00020150B0108914C0008934C00083B
:10001000954C0008974C0008994C0008000000001F
:10002000000000000000000000000000A1C7000860
:100030009B4C00080000000041C8000863C0000895
:10004000650B0108650B0108650B01089D4C000854
:10005000650B0108650B0108B54C0008C74C00088A
:10006000650B0108650B0108650B0108650B0108AC
:10007000650B0108650B0108650B0108650B01089C
:10008000650B0108650B0108650B01080000000005
:10009000000000000000000000000000D94C000833
:1000A000650B0108650B0108650B0108650B01086C
:1000B000650B01080000000000000000650B01084E
:1000C000650B0108650B0108650B0108650B01084C
:1000D000650B0108650B0108650B0108650B01083C
:1000E000650B0108650B010800000000000000001E
:1000F0000000000000000000000000000000000000
:1001000000000000000000000000000000000000EF
:100110000000000000000000014D00080000000089
:10012000650B0108650B0108650B0108650B0108EB
:10013000650B010800000000000000000000000046
:10014000650B0108650B0108650B0108194D0008D6
:10015000650B0108650B0108650B0108650B0108BB
:10016000650B0108650B010800000000000000009D
:1001700000000000650B0108000000000000000006
:10018000650B0108650B0108650B01080000000004
:1001C0000348044B834202D0034B03B118477047E6
:1001D000D8030020D803002000000000054806498D
:1001E0000B1AD90F01EBA301491002D0034B03B145
:1001F00018477047D8030020D803002000000000F3
:1002000010B5064C237843B9FFF7DAFF044B13B15E
:100210000448AFF300800123237010BDD8030020F1
:1002200000000000680B010808B5044B1BB104492D
:100230000448AFF30080BDE80840CFE700000000AD
:10024000DC030020680B0108F0B400EB4003DFF88A
:10025000880000EBC30000F118063069F768756884
:10026000874232D3B368DC1B631E934214D37D19DB
:10027000D01900BF11F8013B05F8013B013A05D048
:1002800011F8013B05F8013B013AF3D1BFF35F8F51
:10029000F0600120F0BC7047C018904219D3781963
:1002A000121B11F8013B00F8013B013CF9D1141C71
:1002B00005D011F8013B05F8013B013AF9D1BFF334
:1002C0005F8FF4600120F0BC7047C01B0138904282
:1002D000CDD20020F0BC7047A84700200A220021A0
:1002E00001F04CBD0A23002201F028BD014B186823
:1002F000704700BF000000200CB400B583B004AB11
:1003000053F8042B019300F097FE03B05DF804EB63
:1003100002B070470EB410B583B005AB064C53F86D
:10032000042B01930146206800F086FE03B0BDE86F
:10033000104003B0704700BF000000202DE9F84FC7
:100340000A9D91460F4602FB03F8824610B183696D
:10035000002B34D0274B9D4236D0274B9D4241D0B5
:10036000264B9D4208BFDAF80C50AB891B0730D5ED
:100370002B6973B3B8F1000F31D007F1FF3B0026B2
:1003800006E02A68511C296013700136B0452CD054
:10039000AC681BF8013F013C002CAC60F1DAAF699E
:1003A000BC422A461946504601DB0A2BE9D101F02E
:1003B0007DFF0130E9D1B6FBF9F0BDE8F88F02F01E
:1003C00091FA0C4B9D42C8D1DAF80450AB891B0757
:1003D000CED42946504601F0CDFF0028CAD00020D7
:1003E000BDE8F88FDAF80850BFE7B8FBF9F0BDE8D0
:1003F000F88F00BF300D0108100D0108F00C010846
:1004000010B5064C82B084460093206813460A4615
:100410006146FFF793FF02B010BD00BF000000204F
:1004200038B50B4B1D68E96B044621B12046BDE889
:10043000384000F013B8242000F01EF90146E863AC
:100440000028F3D10A46034B0348392102F014F87F
:10045000000000203C16010854160108F8B5D0E948
:100460000067634A00230C463046394603F022FEFB
:100470005F4A054639463046002303F01BFE002A3A
:10048000C0F2AC8005F52F2303F66C235948A0FB7E
:100490000250C00A4FF4616101FB10225649A0606E
:1004A000A1FB0201490955486160C1EB0111A2EBB2
:1004B0008102D91C80FB015008442260CA17C2EB9C
:1004C000A002C2EBC2028A1A48BF0732002BA26107
:1004D00079DB4B4AD91782FB0302C1EBE231494871
:1004E000494A4A4E00FB01308508A2FB053200EB69
:1004F000D222A6FB0535464BA2EBD5120509A3FB7C
:100500000535A2EB1512434DA5FB023CA2EB0C03F3
:100510000CEB530C404D9308A6FB03234FEA1C221F
:10052000A5FB0265DB09C3EB5513034440F26D10D4
:1005300000FB123303EB830538480235A0FB050CA2
:100540004FEADC1C40F2F9560CEBCC00B54200EB54
:100550000010334D00F10200A5FB00504FF4C876A7
:1005600094BF02256FF0090506FB01216544012DAA
:1005700098BF01315E1CB3F5997FA6EB90000BD3B9
:10058000A3F59973A1F26C71E3610023E060C4E903
:10059000045123622046F8BD96070BD0214E06FB7E
:1005A00002F2214EB6EB321F2CBF012200223B3358
:1005B0001344E7E71B4E1D4F02FB06F6B7EBB60FE1
:1005C000ECD20122F3E70E49A3F50E32A2F52C720C
:1005D00081FB0201D217C2EBE13180E702F5A832BC
:1005E00005F52F2302F5C07203F66B234EE700BF1B
:1005F00080510100C5B3A2918988888893244992CB
:10060000BD066B394FC5FDFF7F206B39D97CC659BC
:1006100041D6720061F319671F85EB51D7802BD645
:10062000CDCCCCCC295C8FC20AD7A300285C8F022A
:1006300070B50D4E0D4D761BB61006D0002455F842
:10064000043B01349847A642F9D1094E094D761B67
:1006500010F08AFAB61006D0002455F8043B013495
:100660009847A642F9D170BD80170108801701088C
:100670008417010880170108024B0146186800F032
:100680003DBC00BF00000020024B0146186800F08E
:10069000D3BB00BF00000020844641EA000313F0F2
:1006A00003036DD1403A41D351F8043B40F8043B79
:1006B00051F8043B40F8043B51F8043B40F8043B3C
:1006C00051F8043B40F8043B51F8043B40F8043B2C
:1006D00051F8043B40F8043B51F8043B40F8043B1C
:1006E00051F8043B40F8043B51F8043B40F8043B0C
:1006F00051F8043B40F8043B51F8043B40F8043BFC
:1007000051F8043B40F8043B51F8043B40F8043BEB
:1007100051F8043B40F8043B51F8043B40F8043BDB
:1007200051F8043B40F8043B403ABDD2303211D37B
:1007300051F8043B40F8043B51F8043B40F8043BBB
:1007400051F8043B40F8043B51F8043B40F8043BAB
:10075000103AEDD20C3205D351F8043B40F8043B7B
:10076000043AF9D2043208D0D2071CBF11F8013B79
:1007700000F8013B01D30B8803806046704700BF3F
:10078000082A13D38B078DD010F003038AD0C3F14E
:100790000403D21ADB071CBF11F8013B00F8013B30
:1007A00080D331F8023B20F8023B7BE7043AD9D3EF
:1007B000013A11F8013B00F8013BF9D20B780370C4
:1007C0004B7843708B78837060467047830730B5F1
:1007D00048D0541E002A3FD0CAB2034601E0013C73
:1007E0003AD303F8012B9D07F9D1032C2DD9CDB2B3
:1007F00045EA05250F2C45EA054536D9A4F1100236
:1008000022F00F0C03F1200EE6444FEA121C03F114
:10081000100242E9045542E9025510327245F8D1FE
:100820000CF1010214F00C0F03EB021204F00F0C98
:1008300013D0ACF1040323F003030433134442F850
:10084000045B9342FBD10CF003042CB1CAB21C44EC
:1008500003F8012B9C42FBD130BD64461346002CAB
:10086000F4D1F9E703461446BFE71A46A446E0E789
:100870002DE9F04101683B2982B0044600F2CF80A7
:1008800041683B2900F2B980A168172900F2A380D2
:1008900021690B2900F28D8063699A073FD1704866
:1008A000704A714D00FB0326B5EBB60F71D2E368B9
:1008B0006E48002B4FF01D0C37DC694E694D6A4FB6
:1008C000DFF8ACE107E0012914BF50F821206246AF
:1008D0001344002B1EDC0139F5D261694A1E12F067
:1008E000030F626162D106FB0252B7EBB20FC0F098
:1008F000A88001F26B7106FB0151BEEB311F34BFC2
:100900004FF01C0C4FF01D0C1F221344002B4FF016
:100910000B01E0DDC4E9033102B0BDE8F0814FF026
:100920001C0CE3685148002BC7DD4D4F4D4EDFF8DE
:1009300038E1DFF83C8100250131022900EB81021A
:1009400018D052F8042C9A42A3EB0203E4DA0C29E3
:10095000C4E90331F0D1616925614A1C12F0030F2B
:1009600062610ED04FF01C0C00210131022900EB16
:100970008102E6D19C45A3EB0C03CDDAC4E9033137
:10098000DAE707FB0262BEEBB20F5DD24FF01D0C3F
:10099000EAE703F26C7300FB0323354AB2EB331F23
:1009A00034BF4FF01C0C4FF01D0CBAE74FF01C0C7D
:1009B000AAE70C22684601F085FDDDE900216369A4
:1009C000002913446361BDBF0C3103F1FF33C4E957
:1009D0000413216161E71822684601F073FDDDE927
:1009E0000012E368002A0B44E360BDBF183203F134
:1009F000FF33C4E90223A2604AE73C22684601F0C3
:100A000061FDDDE90023A168002B1144A160BDBF99
:100A10003C3301F1FF31C4E90131636035E73C2229
:100A2000684601F04FFDDDE900236168002B1144A9
:100A30006160BDBF3C3301F1FF31C4E90031236087
:100A40001FE74FF01D0C5FE701F26D7207FB0262BA
:100A5000B8EB321F34BF4FF01C0C4FF01D0C83E776
:100A6000295C8FC250B81E05285C8F028C0B0108D0
:100A70000AD7A3002DE9F04F89B0054602F056F9D8
:100A800080462846FFF7F4FED5E90063C3EB031365
:100A90002A69A8686F6906EB8306A14B03EB820302
:100AA000012A1C6BEB6803F1FF331C444FF46163B4
:100AB00003FB006602DDB90700F0D08007F51C5388
:100AC000103344F620629342EC6100F29D81462F80
:100AD00000F3A38044D0452F00F01481914892493F
:100AE000DFF848C2DFF84892452340F26D1E12E05D
:100AF000BCEBB20F03F26C7200FB0212C0F0EC8090
:100B0000B9EB321F34BF72464FF4B772013BBB42A0
:100B1000A4EB02040BD013F0030F00FB0312E7D089
:100B2000013B40F26D12BB42A4EB0204F3D1BB07C0
:100B300040F0E8807B4A7C4B7C4902FB0730B1EBFC
:100B4000B00FC0F0E2807A4907F26C7002FB00330C
:100B5000B1EB331F40F26D1328BF4FF4B773E41AA3
:100B6000744B4FEAE679C4FB036901F0E9F901F03F
:100B7000EBF9714BD3F800A0BAF1000F00F08C80B4
:100B80002B6A686906931A46D8F80430012A00F2E5
:100B90006C70A8BF01228342924602D001F002F994
:100BA00058B3D8F85020D8F82030D8F84CE09B1A29
:100BB0000493D8E9093C63EBE2730593D8F8483015
:100BC0000193B3EB0C016EEBEC7003908E42079136
:100BD00003994FEAE2704FEAEC7379EB010102905E
:100BE00093466046009346DB019BD1179B1A6EEB40
:100BF000010E9E4279EB0E033DDABAF1010F4BD1A3
:100C0000D8F85000C31783460293029B16EB0B06DD
:100C100049EB03014FF0010A46E04249DFF80CC1FD
:100C2000DFF80C91462340F26D1E10E003F26C7267
:100C3000BCEBB00F01FB02F21AD3B9EB321F34BF89
:100C400072464FF4B7720133BB42144488D09A07FE
:100C500001FB03F0EAD040F26D12F4E7314A324B67
:100C6000324902FB0730B1EBB00F38D2013425E72F
:100C70004FF4B772E7E7D8F800A0049BBAF1000F71
:100C800037D09E42059B79EB030341DA069B002B8C
:100C90005FDC4FF0000A03E0D8F82800C317009388
:100CA000009B361849EB0301009101F04BF9234BEF
:100CB0000099C5F820A0043483FB04231A19E31714
:100CC000C3EBA203C3EBC303E31A48BF0733AB6113
:100CD000304609B0BDE8F08F4FF4B77216E707F25F
:100CE0006C7102FB0133124AB2EB331FFFF4E6AE24
:100CF000BCE79E42059B79EB030321DB069B002B9F
:100D000083D160E040F26D1329E74FF4B77326E713
:100D1000079B9E42039B79EB0303B7DAEEE700BF24
:100D20008C0B0108295C8FC250B81E05285C8F020D
:100D30000AD7A300805101001C040020932449928B
:100D4000079B9E42039B79EB0303069B38DB002B3A
:100D5000A6DDA2EB0C024FF0000A2B68D5F80CB010
:100D6000961949EBE2791A442A602846FFF780FD7C
:100D7000EA68B2EB0B023FF440AF012A40DD4FF0CE
:100D8000FF32EB69D318144422D4BA0740D1264964
:100D9000264A274801FB072CB0EBBC0F3ED307F2D5
:100DA0006C7701FB0727234AB2EB371F40F26D1225
:100DB00028BF4FF4B7729342A8BF9B1AEB611CE7A0
:100DC000002B7FF422AFACEB02024FF0010AC4E724
:100DD0007B1E99071FD11449144A154801FB0323B0
:100DE000B0EBB30F1DD3134B07F26B7701FB072258
:100DF000B3EB321F40F26D1338BF4FF4B673DDE72B
:100E0000901CD8BF0122BCE74FF0FF3631465FE7A8
:100E100040F26D12CFE74FF4B673CFE74FF4B772DD
:100E2000C9E740F26D13C9E7295C8FC250B81E05AF
:100E3000285C8F020AD7A300002958D030B551F89A
:100E4000043C83B0002BA1F10404B8BFE418019066
:100E500002F0CAF8284A0198136833B1A3420DD9A9
:100E6000216804EB010C63452FD06360146003B06C
:100E7000BDE8304002F0BAB8A34210D81A465B6809
:100E8000002BF9D1116802EB010C644519D02FD366
:100E90006360546003B0BDE8304002F0A7B8116849
:100EA00002EB010CA44516D022D8216804EB010CFA
:100EB0006345EDD11D685B682944C4E900135460A3
:100EC000D5E7236819441160D1E71D685B682944A0
:100ED000C4E90013CAE7246821445418A3421160EE
:100EE000C5D1D3E900432144C2E90013BFE77047ED
:100EF0000C230360BBE700BFF4030020F8B5CD1C52
:100F000025F0030508350C2D38BF0C25002D0646AD
:100F100023DBA94221D8254F02F066F83A6822B3B4
:100F2000144603E063682246FBB11C4623685B1B42
:100F3000F8D40B2B15D8636894420CBF3B60536008
:100F4000304602F053F804F10B00231D20F0070097
:100F5000C21A01D01B1AA350F8BD0C233360002025
:100F6000F8BD23601C442560EAE77968C9B12946C9
:100F7000304600F09FFB431C0CD0C41C24F003043B
:100F8000A04205D0211A304600F094FB013001D078
:100F90002560D5E70C233046336002F027F80020A7
:100FA000F8BD304600F086FB7860E0E7F4030020EF
:100FB0009368013B002B936011DA10B49469A3424B
:100FC00009DB0A2907D01368581C106019700846FD
:100FD0005DF8044B70475DF8044B01F067B9136886
:100FE000581C106019700846704700BF9BB1F8B5D7
:100FF000134406460F46541E5D1E01E0AC4208D065
:1010000014F8011F3A463046FFF7D2FF431CF5D1D2
:10101000F8BD0020F8BD0020704700BF936810B5F0
:10102000144613B95360184610BD01F07BFC002331
:10103000C4E9013310BD00BF2DE9F04F88469FB0D1
:1010400015461C46814618B18369002B00F0A2802A
:10105000924B984500F0A480914B984500F0B180E8
:10106000904B984508BFD9F80C80B8F80C30180799
:1010700040F19D80D8F81030002B00F098800023BC
:101080000B932978884E059420238DF83130302336
:101090008DF832300127002974D02C460B4604E02D
:1010A00014F8013F002B00F08F80252BF8D1B4EB12
:1010B000050B40F08C802378002B63D000234FF089
:1010C000FF32CDE90723069309938DF85B301C931B
:1010D000013404E0069A07FA03F313430693254606
:1010E000052214F8011B304601F0B2FE831B0028D4
:1010F000F0D1069BD90644BF20228DF85B202978C9
:101100001A0744BF2B228DF85B202A2970D1059A3B
:101110001168043200290592C0F29B800991697818
:1011200001352E2976D0614C0322204601F090FE35
:1011300038B1069B001B402404FA00F003430693D9
:10114000013515F8011B5A488DF83010062201F0C0
:101150007FFE002800F08380564B002B6DD005AA3F
:101160000092554B424606A94846AFF300800390D3
:10117000039B013306D00B9B039A297813440B93EE
:1011800000298AD1B8F80C305B0617D40B981FB031
:10119000BDE8F08F01F0A6FB404B98457FF45CAFB3
:1011A000D9F80480B8F80C3018073FF563AF414612
:1011B000484601F0DFF800283FF461AF4FF0FF3000
:1011C000E5E7D9F8088050E7B4EB050BDAD0AA467A
:1011D000C5F1010503E0934536D91AF8011F4246CF
:1011E0004846FFF7E5FE013005EB0A02F3D1C9E7F7
:1011F000A1F13002092A94D8099B15F8011F03EBCD
:10120000830302EB4303A1F13002092AF5D92E2909
:10121000099388D169782A292BD1059BA9781A6866
:1012200007920433002A05F102000593B8BF4FF07E
:10123000FF330546B8BF079375E7059B073323F0D7
:1012400007030833059396E70B9A23785A440B92C9
:1012500032E7494243F00203099106935FE705AA8A
:101260000092154B424606A9484600F0CBF8039081
:101270007EE7A1F130020023092A079305F1010559
:101280003FF651AF15F8011F03EB830302EB430355
:10129000A1F13002092AF5D9079344E7300D01087E
:1012A000100D0108F00C01088816010890160108BD
:1012B0009416010800000000ED0F000810B4054C62
:1012C0008446134620685DF8044B0A466146FFF7E2
:1012D000B3BE00BF000000202DE9F84F92461F4624
:1012E0000A698B68DDF828909A42B8BF1A46CAF896
:1012F000002091F843300C46064613B10132CAF87B
:101300000020226891065DD5DAF800300233CAF871
:101310000030226812F0060F11461ED1E168CB1A88
:10132000002BD8BF114618DD04F1190B4FF000084F
:1013300005E0E568DAF80030ED1A45450CDD0123DB
:101340005A4639463046C847013008F10108F0D105
:101350004FF0FF30BDE8F88F216894F84330003B30
:1013600018BF01238A060AD5E1185A1C302081F8DB
:101370004300224494F8451082F84310023304F1EC
:10138000430239463046C8470130E1D0236803F0B4
:101390000603042B1DD0A3682269934225DD4FF07C
:1013A00000089B1A98441A34002501E045451CDAD0
:1013B0000123224639463046C847013005F1010570
:1013C000F4D1C5E712F0060F12D0003B18BF01237D
:1013D000D5E7DAF80030E1682269C91AA3689342B8
:1013E00021EAE178DDDC0029DDDC0020BDE8F88FB2
:1013F000E168DAF80030CB1A002BD8BF114693DC35
:10140000ABE700BF2DE9F0470C4684B09046227E42
:101410000C990746994604F14300002A33D0A2F103
:101420005803DDB2202D67D8202B65D8DFE813F0F4
:10143000DE00640064006400640064006400640012
:10144000640064006400A3006E0064006400640033
:1014500064006E00640064006400640021007F008A
:10146000C00064006400AE0064007F00640064009B
:10147000E50023681A0640F104810B6862691D1DAE
:101480000D601B681A60002382462361CDF800902E
:10149000434603AA21463846FFF71EFF013020D0FD
:1014A0002369524641463846C847013019D023685F
:1014B000E068039E9B0719D5831B002B16DD04F102
:1014C000190A002504E0E068039E831BAB420DDD92
:1014D0000123524641463846C847013005F101050F
:1014E000F1D14FF0FF3004B0BDE8F087B042B8BF93
:1014F000304604B0BDE8F087012384F84220236120
:1015000004F1420A002384F84330BFE723681A0637
:1015100002D45E0600F1C1800D682A6804350D60B2
:101520001546002A6BDBDFF884C10A2610E0236829
:101530001D0640F19C800B681D1D0D601D68DFF8C5
:101540006CC16F2A0CBF08260A26002384F843309A
:101550006268A260002A7FDB236823F00403236013
:10156000002D5BD1002A79D18246082E65D0A0EBF0
:101570000A0020618AE70B680122186804330B60B7
:1015800004F1420A84F842002261BBE70B686268FA
:10159000181D0860D3F800A00021504601F058FC47
:1015A000002800F08180A0EB0A0060602061A9E7BC
:1015B000236843F0200323607822DFF8F4C084F826
:1015C00045200A68151D0D601D0643D4590641D5F6
:1015D0001588DE0744BF43F020032360002D44D16B
:1015E000236823F0200323601026AEE7582384F8F5
:1015F0004530DFF8B8C02368E3E72368DCE76268BA
:10160000A2602D21002AC5F1000584F8431002DBF9
:1016100023F004032360DFF894C00A268246B5FB5A
:10162000F6F306FB13512A461CF801100AF8011DB7
:10163000B2421D46F3D2082E99D12368D90796D518
:10164000626823699A4292DC30230AF8013C0AF16D
:10165000FF3A8CE71568BCE7002DDFD19CF800301D
:1016600084F8423004F1420A7FE710266DE713F058
:10167000400F0B6803F104050D600CBF1D681D8849
:101680005DE713F0400F0B68626903F104050D601C
:101690001B6814BF1A801A60F5E60A68B2F9005098
:1016A00004320A602A463CE760687FE79C1601081E
:1016B000B016010838B5074D0022044608462A60D6
:1016C00003F0A6FB431C00D038BD2B68002BFBD0D9
:1016D000236038BD200400202DE9F0435A4C2768D0
:1016E00083B004460E4690461D4617B1BB69002BD9
:1016F00064D0564B9C4267D0554B9C4266D0554BAC
:101700009C4208BFFC68B8F1020F06D0B8F1010F87
:1017100000F28680002DC0F283802146384600F01A
:101720007BFF616B41B104F14403994202D038461A
:10173000FFF782FB00236363B4F90CC000231CF0A5
:10174000800FA361636050D12CF44A6C2CF0030C21
:10175000B8F1020FA4F80CC04ED001AB6A46214686
:10176000384601F047FBA3891843A081002D2FD1F3
:10177000009D2846FEF780FF0646002853D0A38927
:1017800043F08003A381BB693BB3B4F90C2026600E
:10179000B8F1010F04BF42F00102A28112F008006B
:1017A000C4E9046593B21CD013F0010034D00020CA
:1017B0006D42A060A56103B0BDE8F083384601F03A
:1017C00091F8224B9C4297D17C689CE7BC689AE7D1
:1017D000002ECED0BB69002BD7D1384601F082F85D
:1017E000D3E7A06003B0BDE8F08321693846FFF776
:1017F00023FBB4F90CC0A7E7002004F147034CF029
:10180000020C00210122C4E90432A4F80CC0A1603A
:10181000236003B0BDE8F083A56003B0BDE8F083AA
:101820004FF0FF30DEE7DDF80090A94504D04846D0
:10183000FEF722FF064620B9B4F90CC04FF0FF3086
:10184000DBE74D469BE700BF00000020300D01089C
:10185000100D0108F00C010800000000000000005D
:10186000A2EB0300704700BF02780B78012A28BF63
:101870009A42F5D16DE9044540EA0104CDE90267D9
:101880006FF0000C4FEA447212B380EA010414F0C6
:10189000070F6AD100F0070420F0070004F00305E9
:1018A00021F007014FEAC505F0E8042314F0040F06
:1018B000F1E804670CFA05F462EA040266EA040639
:1018C0000AD063EA0403624667EA0407664603E057
:1018D000F0E80423F1E8046782FA4CF582EA060492
:1018E000A4FA8CF46CBB83FA4CF583EA0705A5FADD
:1018F0008CF595B950E9022351E9026782FA4CF55B
:1019000082EA0604A4FA8CF483FA4CF583EA07050C
:10191000A5FA8CF52543DBD09CB92DBAB5FA85F430
:1019200024F0070427FA04F1DDE9026723FA04F33F
:1019300003F0FF0001F0FF01FDE80445A0EB01000A
:10194000704724BAB4FA84F424F0070426FA04F1A8
:10195000DDE9026722FA04F202F0FF0001F0FF0164
:10196000FDE80445A0EB0100704714F0030F3CD1E3
:1019700010F0030428D150F8082B51F8083B82FAE4
:101980004CF582EA0305A5FA8CF55DB950F8042CF4
:1019900051F8043C82FA4CF582EA0305A5FA8CF56D
:1019A000002DE8D02DBAB5FA85F424F0070423FA07
:1019B00004F122FA04F202F0FF0001F0FF01FDE859
:1019C0000445A0EB010070474FEAC40420F0030077
:1019D00050F8082B21F0030151F8083B0CFA04F4ED
:1019E00062EA040263EA0403C9E710F003041AD0B0
:1019F000A1EB040120F00300E40750F8042B06D00B
:101A00000FD28B785FFAA2F4E41A06D12BB1CB780F
:101A10005FFAB2F4E41A00D11BB920465DF8104B0E
:101A2000704701F1040150F8042BCC0721F00301A9
:101A300051F8043B48D824D222F07F4482FA4CF576
:101A400094EA1325A5FA8CF50AD165B951F8043B3F
:101A500084EA0204B4EB036F0ED150F8042BEBE7D9
:101A60004FEA132355E035F07F454DD10878FDE866
:101A70000445C0F1000070474FEA126203F0FF0313
:101A800047E002EA1C4482FA4CF594EA1345A5FAB1
:101A90008CF50AD165B951F8043B84EA0204B4EB31
:101AA000034F0CD150F8042BEBE74FEA134330E01F
:101AB00015EA1C4528D10B884FEA124229E04FEA6B
:101AC000124203EA1C4324E002F0FF0482FA4CF5C0
:101AD00094EA1365A5FA8CF50AD165B951F8043B6F
:101AE00084EA0204B4EB032F09D150F8042BEBE78E
:101AF0004FEA13630DE015F0FF0F05D10B684FEAB5
:101B0000122223F07F4304E04FF00000FDE804457B
:101B1000704712BA1BBA82FA4CF482EA0304A4FAA0
:101B20008CF5B5FA85F402FA04F203FA04F34FEAED
:101B30001260FDE80445A0EB136070470000000050
:101B400090F800F06DE9024520F007016FF0000CFD
:101B500010F0070491F820F040F049804FF00004A5
:101B60006FF00700D1E9002391F840F000F1080080
:101B700082FA4CF2A4FA8CF283FA4CF3A2FA8CF3B8
:101B80004BBBD1E9022382FA4CF200F10800A4FA1F
:101B90008CF283FA4CF3A2FA8CF3E3B9D1E9042373
:101BA00082FA4CF200F10800A4FA8CF283FA4CF3AA
:101BB000A2FA8CF37BB9D1E9062301F1200182FA64
:101BC0004CF200F10800A4FA8CF283FA4CF3A2FA6A
:101BD0008CF3002BC6D0002A04BF04301A4612BA78
:101BE000B2FA82F2FDE8024500EBD2007047D1E97B
:101BF000002304F00305C4F100004FEAC50514F00A
:101C0000040F91F840F00CFA05F562EA05021CBFDA
:101C100063EA050362464FF00004A9E72DE9F04F9F
:101C2000814645488E4675461EF801CB10F80C409B
:101C300014F00804F7D1BCF12D0FE34654D0BCF1E9
:101C40002B0F08BF9EF800B06FF0004808BF05F1E9
:101C5000020E1BB1102B4FD01F4604E0BBF1300F1A
:101C600055D00A231F460025B8FBF7F6284607FB88
:101C7000168A07E0864215D329D007FB00C001254C
:101C80001EF801BBABF1300CBCF1090F06D9ABF16A
:101C9000410CBCF1190F08D8ABF1370C63450DDDD1
:101CA000002DE7DA4FF0FF35EAE7ABF1610CBCF14C
:101CB000190F03D8ABF1570C6345F1DC002D0BDB9A
:101CC00004B140420AB195BB1160BDE8F08FE24516
:101CD000D3DA4FF0FF35D3E72223C9F800301AB327
:101CE0000EF1FF314046EFE79EF800B04FF000489C
:101CF00005F1020E0124ACE7BBF1300FACD19EF828
:101D0000000000F0DF00582807D01F46ABE79EF820
:101D1000003003F0DF03582B0BD110279EF801B0E1
:101D20003B460EF1020E9EE74046BDE8F08F80462E
:101D3000D6E708231F4696E7ED0B0108012B02D0DA
:101D4000242B00D86AE710B5FEF7D0FA16230360FB
:101D5000002010BD012A08D0242A06D8844606484F
:101D6000134600680A46614658E710B5FEF7BEFA0A
:101D700016230360002010BD00000020012A08D0B7
:101D8000242A06D884460648134600680A46614657
:101D900044E710B5FEF7AAFA16230360002010BD31
:101DA000000000202DE9F04F83B0064600F0BEFF92
:101DB00040F2B1739E4240F3AD805D4A466082FBC3
:101DC00006416FF4F663F41706EB030EC4EBE1155E
:101DD000C4EB61144FF4C871A6F26D73A6F2B2772A
:101DE00001FB15654FEAAE0E40F26D1101FB07EEE7
:101DF00082FB0371DB17A3EB61139E44B5FA85F3F5
:101E00005B0903EB43031B016FF4C8610193731873
:101E1000A2FB0332642303FB146406F003010EEB00
:101E2000D21E034600F150061A7A4A2A1FD0442ACD
:101E300031D15A690EEB020C9A693E4F07FB0C2216
:101E40009F6A3A441A62D2175A6228339E42EBD1F3
:101E5000046A816CC36C426A8C4272EB0303B4BFA8
:101E6000012300230360012003B0BDE8F08FD3F805
:101E700014C00CEB0E0239B934B1BCF13B0FC8BF32
:101E8000013202F1FF3CD7E7002DFAD1BCF13B0F44
:101E9000C8BF0132F5E7002940D0DDF804A0264A8A
:101EA0009244DA68012A40DD4FEA820BABF108095F
:101EB000D144AAF10402F446984652F8043F9145F1
:101EC0009C44FAD1ABF1040B4346DA441B4F0CF1AE
:101ED000040287FB027909EB02084FEAE279C9EBB9
:101EE000A809C9EBC9095F69DAF80080A2EB090209
:101EF000B7EB02091A6902F1FF3248BF09F107097D
:101F0000C2EBC2024A44424502DB073A4245FCDAD0
:101F1000944491E7002003B0BDE8F08F019A002CB3
:101F20000CBF92464FF0300AB9E7F446CEE700BF47
:101F30001F85EB5180510100500D010893244992F7
:101F4000704700BF704700BF014B186800F010B821
:101F50000000002008B5FFF7F3FF044B186800F0FD
:101F600007F8BDE80840FFF7EDBF00BF0000002004
:101F70002DE9F04F8BB0054600F0D8FEB949044674
:101F8000284600F0CBFE0646002800F00281B64F3E
:101F9000396829B1FFF768FC002800F0DF80396854
:101FA0000846FEF771FB3046FFF7CAFD411C284684
:101FB000FEF7A4FF386010B1314601F0E1F8337844
:101FC000AA4AAB493A2B08BF013608AB304601F0AC
:101FD00037F8002840F3C280089BF518F35C2D2BDE
:101FE00000F0BF802B2B08BF01354FF0010908AB73
:101FF00006AF0DF116064FF000089E4903930193BA
:102000000297009605AA2846ADF81680ADF818800C
:1020100001F016F8404540F3A180BDF8163008984D
:102020009249C3EB0312BDF8183003EB8203BDF8ED
:10203000142005444FF4616000FB023309FB03F3F5
:10204000DFF83C92A36201F10C0AC9F8001008AB5A
:1020500087495246284600F0F3FF404540F3EE80A2
:10206000089BC9F804A0EA5C2D2A1D447DD02B2AC8
:1020700008BF01354FF0010808ABCDE90273CDE987
:1020800000630023ADF81430ADF81630ADF8183009
:102090000893784908AB05AA284600F0D1FF00282C
:1020A00040F38580BDF81630C3EB0312BDF818303D
:1020B00003EB8203BDF814204FF4616101FB02338E
:1020C00008FB03F32365089BDFF8C0B11D44A1465C
:1020D0004FF0000A95F80080B8F12C0F04BF95F876
:1020E00001800135B8F14D0F65D0B8F14A0F08BF36
:1020F00001354FF00A0209A9284618BF4FF04408DD
:1021000001F088F9099BADF81E00AB4234D080B2D3
:1021100089F80880C9F814001D460023ADF8163070
:10212000ADF8183008930223ADF814302B782F2B1C
:1021300069D04FF4E153C9F8183009F12809BAF110
:10214000000F16D06068FFF72DFEA26A236D4A4883
:102150004A4902609B1A18BF01230B600BB0BDE80F
:10216000F08F01354FF0FF3941E701354FF0FF386F
:1021700082E74FF0010AADE7BAF1000F69D04D22B6
:1021800084F830200B210122C4E90D120022E26301
:10219000C2E73A4A344C1060394B3749394A086033
:1021A000C3E900222068FEF76FFA2660D6E7A36A2B
:1021B000A3F5616386E708AB039301930DF11E035A
:1021C000029307AB00930DF11A0208AB594628465B
:1021D00000F036FF0328C1D1BDF81A305A1E0B2A71
:1021E000BCD8BDF81C20511E0429B7D8BDF81E105C
:1021F0000629B3D8C9E9033289F80880C9F8141050
:10220000089B1D4489E708ABCDE90273CDE9006363
:102210001D49284605AA00F013FFBDF8163008999D
:10222000C3EB0312BDF8183003EB8203BDF8142092
:102230000D444FF4616101FB02337CE7D9F80010D3
:102240000D4A0E4BC9F80410A16A1160C3F8008052
:1022500084E74D22227203200222C4E90302C4F85B
:1022600014A059E7C4160108FC0300200004002054
:10227000CC160108DC160108180400201C040020FC
:1022800064000020C816010804170108F0160108B0
:1022900000B583B00190FFF753FE0198FFF768FE89
:1022A00003B05DF804EBFFF74DBE00BFF8B50D4677
:1022B0001446064608B1836943B3254B9C422AD095
:1022C000244B9C4229D0244B9C4208BFF468A3892C
:1022D000A269A2601A0722D5236903B32268616943
:1022E000D31AEDB299422F4629DD0133A168013995
:1022F000A160511C2160157062699A4216D0A389B1
:10230000DB0701D50A2D11D03846F8BD00F0EAFAF6
:102310000F4B9C42D4D17468D9E7B468D7E7214603
:10232000304600F027F838B92369D7E72146304610
:1023300000F072F90028E7D04FF0FF37E4E72146BC
:10234000304600F069F90028F6D122680123CDE774
:10235000300D0108100D0108F00C010810B4044CF8
:1023600003460A4620685DF8044B1946FFF79EBFF6
:10237000000000203C4B70B51D6806460C460DB1B0
:10238000AB69E3B1394B9C421FD0394B9C424DD0D5
:10239000384B9C4208BFEC68B4F90C3018079AB26D
:1023A00019D5216911B312F001002FD00020A060CF
:1023B00060694042A06100292ED0002070BD2846EF
:1023C00000F090FA294B9C42DFD16C68B4F90C30D4
:1023D00018079AB2E5D4D1063ED5520728D4216910
:1023E00043F00803A3819AB20029DCD102F42070E3
:1023F000B0F5007FD7D02146304600F09BFCB4F901
:102400000C3021699AB212F00100CFD1950758BF64
:102410006069A0600029D0D1120658BF0846CDD50A
:1024200043F04003A3814FF0FF3070BDAC68B3E7C9
:10243000616B51B104F14402914204D03046FEF781
:10244000FBFCB4F90C300022626321690022C4E96C
:10245000001223F02403C3E7092243F04003326053
:102460004FF0FF30A38170BD00000020300D010847
:10247000100D0108F00C010800B50B4C256814463E
:10248000EE681A4685B003460D464CB107490095E3
:10249000CDE9011430460649FDF73CFF00F0C6FFC8
:1024A00004490C46F3E700BF00000020181701089C
:1024B000281701083014010808B513460022FFF759
:1024C000DBFF00BF002910B491FBF2F302FB1314F1
:1024D0000DDB002C04DBC0E900345DF8044B7047D1
:1024E000A41A0133C0E900345DF8044B7047002C96
:1024F000C4BFA41803F1FF33C0E900345DF8044BF6
:10250000704700BF8B891A072DE9F0410C468046C1
:102510003FD44A68002A58DDE66A002E52D00022D5
:10252000D8F80050C8F8002013F4805251D101238C
:10253000216A4046B047431C5ED0A389E66A5F0724
:1025400005D56368C01A636B0BB1236CC01A216A8E
:10255000024600234046B047411C3CD1D8F8003029
:10256000002B38D01D2B01D0162B4DD12369002212
:10257000C4E90032616BC8F8005019B304F1440398
:10258000994202D04046FEF757FC00206063BDE848
:10259000F0810E69B6B10D680E609A070CBF4B69E9
:1025A0000023AD1B8B600BE02B463246216AA76AE5
:1025B0004046B847B0F1000CA5EB0C05664413DDAE
:1025C000002DF1DC0020BDE8F0810A6C002AA3DCBC
:1025D000F8E7606DB3E70023636023692360A38994
:1025E000DB04C7D56065C5E7A38943F040034FF01E
:1025F000FF30A381BDE8F081D8F80030002B9CD0DB
:102600001D2B06D0162B04D0A38943F04003A381D1
:10261000D9E7C8F80050D5E738B50B69BBB10D460E
:10262000044608B18369B3B10D4B9D4211D00D4BE7
:102630009D4213D00C4B9D4208BFE568B5F90C30A4
:102640002BB129462046BDE83840FFF75BBF00208C
:1026500038BD6568F2E700F045F9E5E7A568EDE704
:10266000300D0108100D0108F00C010838B540B319
:1026700003690446E3B1174B1D680DB1AB69CBB1DB
:10268000154B9C420FD0154B9C4221D0144B9C42C1
:1026900008BFEC68B4F90C3053B121462846BDE8B8
:1026A0003840FFF72FBF6C68B4F90C30002BF4D121
:1026B000002038BD284600F015F9074B9C42E2D1B6
:1026C000F1E7084B08491868BDE8384000F0C2BA85
:1026D000AC68DFE700000020300D0108100D010894
:1026E000F00C0108880B010819260008002070472B
:1026F000014900F0AFBA00BF19260008002070475A
:1027000070B568224D1E02FB05F50E4605F17401F9
:10271000FEF7F4FB044640B100210C30C4E900167A
:10272000A06005F16802FEF751F8204670BD00BFB9
:10273000274B2DE9F0411E68B369074653B348366D
:102740004FF00408D6E90134013B04D51EE05A1CC1
:1027500004F168041AD0B4F90C50013B002DF6D1F5
:102760001C4B6566C4E90055C4E90253C4E904552D
:10277000A5610822294604F15C00FEF727F8C4E9A8
:102780000D55C4E912552046BDE8F08135682DB1DC
:102790002E46D7E7304600F01FF8D0E74FF4D67149
:1027A0003846FEF7ABFB044668B10560C0F804800C
:1027B0000C302946A06025464FF4D072FEF706F88B
:1027C00034602E46BEE70C2330603B60DBE700BF81
:1027D000880B01080100FFFF2DE9F84F344B354904
:1027E0001A68816290424FF00003C0E9123303651A
:1027F00004BF012383610546FFF79AFF68602846FE
:10280000FFF796FFA8602846FFF792FF6F68E86021
:1028100000240423C7E9024308222146C7E90044F3
:10282000C7E904447C66BC6107F15C00FDF7CEFF9C
:10283000DFF88CB0AE68DFF88CA0DFF88C90DFF8A2
:102840008C801D4BC7F828A0C7E9087BC7F82C90DF
:10285000C7F830800822F360C6E90044C6E90444A2
:102860007466B460B461214606F15C00FDF7AEFF0A
:10287000C6E9086BC6E90AA9C6F83080EE680F4BB6
:10288000F360C6E90044C6E904447466B460B46108
:102890002146082206F15C00FDF798FF0123C6E9F6
:1028A000086BC6E90B98C6F828A0AB61BDE8F88FA5
:1028B000880B0108F126000809000100120002003F
:1028C000F130000819310008593100087931000849
:1028D000024B0349186800F0BDB900BF880B01081E
:1028E00019260008836903B976E77047704700BF6F
:1028F000704700BF704700BF704700BF024B0349DD
:10290000186800F087B900BF00000020ED2600081D
:10291000024B0349186800F07DB900BF0000002099
:10292000FD2600089368002B00F085802DE9F04F0C
:10293000B1F90C300C461907804683B0174698B29F
:1029400025D523691BB310F002033D682DD04FF04D
:10295000000ADFF8BCB25646B9465E4533465246D9
:1029600028BF5B464046002E52D0216AA76AB8476E
:10297000002856DDD9F808301B1A8244361AC9F8E7
:102980000830002BE9D1002003B0BDE8F08F2146CC
:102990004046FFF7EFFC002840F03681B4F90C30D8
:1029A0003D6898B210F00203D1D110F0010944D172
:1029B0004E46009746B38205D4F808B040F18380B4
:1029C000B3455A4600F2B28010F4906F40F0BF80D9
:1029D00020680192494600F08BFAA368019AA3EBA4
:1029E0000B012368A1601344B24623600026009BBC
:1029F0009868A0EB0A00D14498600028C3D0B4F9CD
:102A00000C0080B2002ED6D1D5E900960835D1E76A
:102A1000D5E900A60835A0E721464046FFF7FCFDB2
:102A200080B3B4F90C3043F040034FF0FF30A38182
:102A300003B0BDE8F08F002070471E46AA469946B5
:102A400018461D46009756B388B34A46D4E9041386
:102A50002068B24228BF3246884205D9A16803EBFC
:102A6000010B5A4500F3A680934263DC216AA76AF2
:102A70002A464046B847B0F1000BD2DDB9EB0B094E
:102A8000CAD00120009A9368A3EB0B035D44A6EB28
:102A90000B069360002B3FF476AF002ED4D10AF1E1
:102AA000080353E902569A460833002EF9D03246FD
:102AB0000A21284600F0CCF9002800F09C80013063
:102AC000A0EB0509C1E720682369984216D863691D
:102AD000B34213D86FF00042B24228BF3246216A97
:102AE00092FBF3F2A76A02FB03F340464A46B8475B
:102AF000B0F1000A95DDA6EB0A0678E7B345DA46A1
:102B000028BFB2465246494600F0F2F9A36822684F
:102B1000A3EB0A035244A3602260002BEBD12146B1
:102B20004046FFF779FD0028E5D07AE72068B346F4
:102B300032464EE72946019200F0DAF9019AA3687D
:102B40009B1AA360236813442360934696E7236887
:102B50002169A3EB010B636903EB430A0AEBDA7A01
:102B60000BF101034FEA6A0A33445345524684BFCE
:102B70009A46524643052CD511464046FEF7BEF90B
:102B800000283BD05A4621690190FDF785FDA289B6
:102B9000019B22F4906242F08002A28103EB0B00C1
:102BA0002361AAEB0B03C4F814A0A3602060B34612
:102BB00032460EE729465A4600F09AF923685B44EC
:102BC000236021464046FFF727FD00283FF456AF1B
:102BD00027E7404600F00CFA03460028DED12169C1
:102BE0004046FEF729F9B4F90C300C2223F080039B
:102BF000C8F8002017E7721C914627E70C22B4F9A9
:102C00000C30C8F800200EE74FF0FF30BCE600BFE4
:102C100000FCFF7F2DE9F041884600F148070026BF
:102C2000D7E90154013D0FD4A389012B05F1FF35EC
:102C300006D9B4F90E300133204601D0C04706430F
:102C40006B1C04F16804EFD13F68002FE8D13046D7
:102C5000BDE8F0812DE9F8430746884600F14806B3
:102C60004FF00009D6E90154013D11D4A389012B8D
:102C700005F1FF3508D9B4F90E300133214603D0F0
:102C80003846C04749EA00096B1C04F16804EDD1DD
:102C90003668002EE6D14846BDE8F8832DE9F047B6
:102CA000DFF8748006468946174600F0D9FBD8F84D
:102CB000005055B199F800301C4673B14C4602E003
:102CC00014F8013F3BB13D2BFAD1304600F0CAFB6E
:102CD0000020BDE8F087A4EB090428680028F4D0A0
:102CE0002246494600F0AAFA28B92B681A5D3D2A07
:102CF00003EB040A04D055F8040F0028F0D1E4E7F0
:102D0000D8F80030ED1AAD1030463D6000F0AAFB57
:102D10000AF10100BDE8F087C800002000B583B0CB
:102D200001AAFFF7BBFF03B05DF804FB0048704742
:102D300070000020F0B58B890C46990797B007D535
:102D400004F147030122C4E90432236017B0F0BD47
:102D5000B4F90E10002905462DDB6A4600F084FB0D
:102D6000002827DB019E06F470464FF48067A6F525
:102D70000056B6FA86F6394628467609FEF7BEF8BA
:102D800030B3A3891A4AAA6243F08003C4E9040756
:102D9000A3812060002ED9D0B4F90E10284600F08F
:102DA00079FB0028D2D0A38923F0030343F0010369
:102DB000A381CBE7A38913F0800F14BF40274FF402
:102DC0008067394628460026FEF798F80028D8D1B3
:102DD000B4F90C309A05B9D423F0030304F1470287
:102DE00043F002030121C4E90421A3812260ADE77D
:102DF000F126000870B50C46B1F90E10002996B006
:102E000016461D4613DB6A4600F02EFB00280EDB3B
:102E1000019901F47041A1F50051B1FA81F14FF42B
:102E20008063490900202960336016B070BDB4F991
:102E30000C3000221B062A6004D54023002033609A
:102E400016B070BD4FF480630020336016B070BDC3
:102E500001F0FF01102A2BDB10F0070F08D010F84B
:102E6000013B013A8B422DD010F0070F42B3F6D14F
:102E7000F0B441EA012141EA014122F007047FF068
:102E800000070023F0E80256083C85EA010586EABF
:102E9000010685FA47F5A3FA87F586FA47F6A5FAFB
:102EA00087F68EB9EED1F0BC01F0FF0102F0070207
:102EB00032B110F8013B013A83EA010313B1F8D1B2
:102EC0000020704701387047002D06BF3546033893
:102ED000073815F0010F07D1013015F4807F02BFCC
:102EE000013015F4C03F0130F0BC0138704700BF1D
:102EF00088420DD98B1883420AD900EB020CBAB173
:102F0000624613F801CD02F801CD9942F9D170471C
:102F10000F2A0ED8034602F1FF3C4AB10CF1010C16
:102F2000013B8C4411F8012B03F8012F6145F9D1C5
:102F3000704740EA01039B0750D1A2F1100370B51E
:102F400001F1200C23F00F0501F1100E00F1100427
:102F5000AC441B095EF8105C44F8105C5EF80C5C35
:102F600044F80C5C5EF8085C44F8085C5EF8045CAD
:102F700044F8045C0EF1100EE64504F11004E9D1AA
:102F8000013312F00C0F01EB031102F00F0400EB00
:102F9000031327D0043C24F003064FEA940C1E448C
:102FA0001C1F8E465EF8045B44F8045FB442F9D1FE
:102FB0000CF1010402F0030203EB840301EB840132
:102FC00002F1FF3C4AB10CF1010C013B8C4411F8B9
:102FD000012B03F8012F6145F9D170BD02F1FF3CCF
:102FE00003469BE72246EBE7704700BF704700BFF0
:102FF000F8B51446F9B1CAB106460D4600F072FAAA
:10300000A04202D32F463846F8BD21463046FDF790
:1030100075FF07460028F6D022462946FDF73CFBFF
:1030200030462946FDF708FF3846F8BD2746FDF72C
:1030300003FF3846F8BDBDE8F8401146FDF75EBF16
:103040000EB410B59FB021AC4FF4017154F8042BAD
:103050000192ADF81C1004900890FEF771FD0590E8
:1030600009900B480B490D9100234FF6FF7C1193FB
:103070001693019A0068ADF81EC0234604A9039474
:1030800000F098FA1FB0BDE8104003B0704700BFD1
:1030900000000020153100080CB430B59FB022AC00
:1030A0004FF4017354F8042B019205460846ADF81D
:1030B0001C3004910891FEF743FD0C490D91034625
:1030C000059309934FF6FF71002311931693ADF802
:1030D0001E10019A03942846234604A900F06AFAB8
:1030E0001FB0BDE8304002B0704700BF1531000886
:1030F00010B50C46B1F90E1000F074FD002803DB8A
:10310000636D0344636510BDA38923F48053A381D9
:1031100010BD00BF002070472DE9F0410C46B1F909
:103120000C101F46CB05054616460BD421F48051E2
:10313000A1813B46B4F90E1032462846BDE8F04165
:103140000BF04ABDB4F90E100223002200F0B4F9CE
:10315000B4F90C10EAE700BF10B50C46B1F90E1037
:1031600000F0AAF9A389421C0EBF23F4805343F454
:1031700080536065A38110BDB1F90E1000F05EB9F7
:1031800080EA0102844612F0030F4FD111F0030FC1
:1031900032D14DF8044D11F0040F51F8043B0BD01F
:1031A000A3F101329A4312F0803F04BF4CF8043B74
:1031B00051F8043B16D100BF51F8044BA3F1013282
:1031C0009A4312F0803FA4F101320BD14CF8043B3A
:1031D000A24312F0803F04BF51F8043B4CF8044B6B
:1031E000EAD023460CF8013B13F0FF0F4FEA3323DC
:1031F000F8D15DF8044B704711F0010F06D011F8BB
:10320000012B0CF8012B002A08BF704711F0020FA8
:10321000BFD031F8022B12F0FF0F16BF2CF8022B93
:103220008CF8002012F47F4FB3D1704711F8012BB6
:103230000CF8012B002AF9D1704700BFA2B330B5BA
:1032400040EA0104A40784460B462AD09CF80000FB
:103250000C7884422FD1012A0DD0E64660B11EF8C9
:10326000010F11F8014F6FEA0E03A042134422D15F
:103270001CEB0303F2D1002030BD0468194653F85B
:10328000045BA4F1013EAC4284462EEA040E00F138
:1032900004000BD1043A84461946ECD01EF0803F5E
:1032A000E9D1032AE9D8D1E7104670479CF800001D
:1032B0000C78A042D1D0001B30BD00BF2DE9F047F3
:1032C00007464B480E46354616F801CB10F80C4021
:1032D00014F00804F7D1BCF12D0FE64658D0BCF12C
:1032E0002B0F04BF96F800E0AE1C5BB1102B54D03E
:1032F0004FF0FF38B8FBF3F803FB08FA6FEA0A0A4D
:10330000994608E0BEF1300F5AD00A23DFF8E48076
:103310004FF0050A99460025284607E0404515D894
:1033200029D009FB00C0012516F801EBAEF1300CE5
:10333000BCF1090F06D9AEF1410CBCF1190F08D848
:10334000AEF1370C63450DDD002DE7DA4FF0FF35A8
:10335000EAE7AEF1610CBCF1190F03D8AEF1570CDE
:103360006345F1DC002D0BDB04B140420AB16DB9BD
:103370001160BDE8F087D445D3DD4FF0FF35D3E7CA
:1033800022233B604FF0FF30002AF2D0711EEFE79E
:1033900096F800E00124AE1CA7E7BEF1300F21D162
:1033A000307800F0DF00582816D14FF0100996F859
:1033B00001E04FF00F0A02366FF070484B46AAE763
:1033C000337803F0DF03582BEFD008234FF0070AC0
:1033D0006FF0604899469EE799466FF070484FF04D
:1033E0000F0A98E74FF00F0A6FF07048994692E77E
:1033F000ED0B01089999991960E700BF10B4044CCE
:103400008446134620685DF8044B0A46614655E73A
:103410000000002010B4044C8446134620685DF878
:10342000044B0A46614649E70000002008B5062023
:1034300000F0C8FC012001F019FD00BF38B5074DB0
:103440000022044608462A6001F026FD431C00D0F5
:1034500038BD2B68002BFBD0236038BD2004002032
:10346000704700BF704700BF70B50C46084D03465B
:103470000026204611461C462E6001F010FD431C1C
:1034800000D070BD2B68002BFBD0236070BD00BF47
:103490002004002038B5074D0022044608462A6063
:1034A00001F002FD431C00D038BD2B68002BFBD07F
:1034B000236038BD2004002038B50C46084D8446F2
:1034C000114620461A4600232B60644601F0EEFCAC
:1034D000431C00D038BD2B68002BFBD0236038BDC7
:1034E0002004002051F8040C0028A0F10400BCBF07
:1034F0000B58C018704700BF38B54B1C1AD09389C1
:103500001446526B23F02003A381CDB2AAB16268A6
:10351000A36B9A4209DA23685A1E226003F8015C01
:10352000636801336360284638BD214600F002FD20
:103530000028F0D04FF0FF35F5E7236922682BB162
:10354000934203D212F8013CAB420FD06168216470
:103550002346E26304F144010322A263616303F89A
:10356000465F0122C4E90032284638BD6368013A4B
:103570000133C4E90023D6E710B50C46496B69B1A5
:1035800004F14403994201D0FDF756FC236C6360BB
:103590000020606313B1E36B236010BDA389216930
:1035A000002243F02003C4E90012A3814FF0FF3052
:1035B00010BD00BF2DE9F04FADF5237D15460093FA
:1035C0000023CDE944331278824BA0930DF1040817
:1035D000814BA193CDF81881B2B1804FDFF80092F2
:1035E000BB5C13F0080306460C464FF0030B2BD1CF
:1035F000252A05F1010A41D015466168002908DD38
:1036000021680878A8420FD044980DF5237DBDE8C5
:10361000F08FA19B214630469847002840F0038157
:1036200021680878A842EFD16368013B6360459B3D
:10363000013101332160554645932A78002AE3D0B1
:10364000BB5C13F00803D3D063680DE021680A78EF
:10365000BB5C1B0701F101010ED56368459A013B74
:10366000C4E9001301324592002B21463046EDDCBF
:10367000A19B98470028E9D00135DEE743934193A9
:1036800069782A2904D110234193A97805F1020A07
:10369000A1F13002092A0CD8002202EB820201EBD0
:1036A0004202303A43921AF8011FA1F13000092872
:1036B000F3D94B480322FFF7CBFB48B1419AA0EB6B
:1036C0000900012101FA00F010430AF1010A4190BA
:1036D000554615F8013B782B00F28480DFE813F0A3
:1036E0001301820082008200820082008200820038
:1036F00082008200820082008200820082008200BA
:1037000082008200820082008200820082008200A9
:103710008200820082008200820082008200820099
:1037200082008200820082008200160182008200F4
:103730008200820082008200820082008200820079
:103740008200820082008200820082008200820069
:103750008200820082008200820082008200820059
:1037600082008200820082008200C800C800C80077
:103770008200820082008200820082008200820039
:103780008200820082008200820082008200820029
:10379000DC0082008200E60082008200820082005B
:1037A000820082008200F100CB00C800C800C8007F
:1037B0008200F8008200820082008200FC000B017F
:1037C0000F0182008200E3008200CB0082008200B1
:1037D000DC0000BFF934000879350008ED0B010862
:1037E000901601080A23CDF81CB142936368002BA0
:1037F0004BDD419B5A0625D5479B022B40F3898020
:10380000042B40F38D804A4B002B3FF416AF6B46E0
:10381000224641A93046AFF3008001283FF4F4AEC0
:1038200002287FF40AAF449800286CD0A38913F0D3
:10383000400F18BF4FF0FF30E7E6A19B3046984796
:103840000028F0D122681378FB5C1B07D4D563688D
:103850004599013B481C002B21464590636002F1CD
:103860000102EADD22601378FB5C1B07C4D5EEE79A
:1038700005234793BAE70A2242926F2B34BF0323F2
:10388000042347936368002BB3DCA19B2146304699
:1038900098470028ADD0C6E7419A42F400724192A1
:1038A00010224292E9E7022347939FE729464046C8
:1038B00000F0AEF9419B43F04003419305460123DC
:1038C000DFE7419B43F040034193002347938DE79B
:1038D000002342930323D4E7419BD8063FF5ADAEC6
:1038E000D907009B459A03F1040100911B684CBF66
:1038F0001A801A60A1E6082342930423C1E7419A83
:1039000042F02002C9E74FF0FF307EE6AA462525A7
:1039100073E66B46224641A9304600F00BF87CE77F
:103920006B46224641A9304600F066F875E700BFB5
:10393000000000002DE9F8430D468968074614464B
:10394000A86929B9002814BF4FF0FF320122AA60EC
:103950002A68D20603D41A68111D19601668DFF8A8
:1039600094804FF0000900B3012837D0022825D1F8
:1039700023681A7812F8082012071FD42A68D10683
:1039800009F1010903D41B7806F8013B236861683B
:10399000AA6801390133013AC4E90031AA606AB169
:1039A000002904DDA8690028DED12368E6E7D5F800
:1039B00080312146384698470028F3D02B6813F011
:1039C000100305D1EA680132EA60AA6902B13370D6
:1039D0002B694B4400202B61BDE8F88323686A699A
:1039E0001978525C002AC9D1B9F1000FE6D1BDE8BF
:1039F000F88300BFED0B01082DE9F04F87B08F6809
:103A000001930C468B697349734D1646734A032B19
:103A100018BF11468046009195E8070007F1FF3C6A
:103A200003ABBCF5AE7F83E8070040F299806FF4EA
:103A3000AE7040F25D1207EB000AA260A1469B4601
:103A400059F81C2B42F45062002722604D4633681F
:103A50005BF8040B19780222FFF7FAF9A0B1012FE5
:103A600077D0022F00F09E80A3685A1EA2605BB13F
:103A700033685A1C32601B7805F8013B7368013BC0
:103A8000002B736040F384800137032FDFD161681E
:103A9000002968D0C1F11001514B6069194400F050
:103AA000B7F8A368002B00F09280002706E0336887
:103AB00001333360A368013BA360CBB13068626916
:103AC0000178525CA2B13029226856D022F41062EB
:103AD0002260037805F8013B7368013B002B73609B
:103AE000E5DCD4F880313146404698470028E1D0E3
:103AF0002268D1050CD54D4507D915F8011CD4F81D
:103B00007C3132464046013D98474D455DD02268A4
:103B100012F0100213D12A706368009E4946404695
:103B2000B047236801999A0601D4DB0747D40B6894
:103B30001A1D0A601B681860E3680133E36023699B
:103B4000A5EB09052F441F442761002007B0BDE8FD
:103B5000F08F63685BB1236823F4A063236083E77D
:103B60004FF0000A6AE70A236360062194E70823FE
:103B70006360236843F40073EEE71105A6D50137AF
:103B8000BAF1000FA8D00133A3600AF1FF3AA3E70E
:103B9000D4F8803131464046984700283FF474AF4E
:103BA0000027A5E7236803F4C062B2F5007F7FF425
:103BB0006EAF43F4807323601023636054E70B6897
:103BC0001A1D0A601B681880B6E70120BEE71F4671
:103BD0008EE700BF3D1D0008B00D0108F933000855
:103BE0006417010838B50C46084D84461146204636
:103BF0001A4600232B60644601F03EF9431C00D0B6
:103C000038BD2B68002BFBD0236038BD200400207A
:103C1000F0B50C785E2C23D0002201F1010C964601
:103C2000431E00F1FF0103F8012F8B42FBD19CB131
:103C30008EF00102C64302550CF1010E1EF8013C44
:103C40002D2B714612D05D2B04D013B11C46F446C7
:103C5000F1E761460846F0BD0CF1FF310846F0BDC2
:103C600001224C7801F1020C9646D9E79CF80150EC
:103C70005D2DEBD0AC42E9DC671C0CF1020CC319E2
:103C800003F8012BF1188D42FADC2B1B013BAC42EF
:103C9000A8BF00230EF1020EDC19CFE738B5446C43
:103CA0000CB1002038BD80210546FDF727F90246FA
:103CB000686430B1031F7C3243F8044F9342FBD158
:103CC000EFE74FF0FF3038BD1F29F8B5054608D89B
:103CD000466C0C4617464EB156F8240046F8247040
:103CE000F8BD162303604FF0FF30F8BD8021FDF7CB
:103CF00005F90646686440B1031F00F17C05002108
:103D000043F8041F9D42FBD1E6E74FF0FF30F8BDBA
:103D10001F2938B5054620D8426C0C466AB152F8C6
:103D2000213053B1012B16D0591C10D0002520464C
:103D300042F824509847284638BD284600F0F8F845
:103D4000224601462846BDE8384000F0DBB816237D
:103D50000360012038BD002038BD162303604FF0FA
:103D6000FF3038BD1F292AD8426C38B50C460546AD
:103D700082B152F8243002EB84024BB1591C19D0A5
:103D8000012B15D00025204615609847284638BDE0
:103D9000012038BD8021FDF7B1F80246686458B1B2
:103DA000031F00217C3043F8041F9842FBD1E0E759
:103DB000032038BD022038BD4FF0FF3038BD4FF032
:103DC000FF30704738B5144B1F281D681FD86A6C28
:103DD000044662B152F820304BB1012B15D0591C6A
:103DE0000FD0002542F820509847284638BD284675
:103DF00000F09EF8224601462846BDE8384000F013
:103E000081B816232B60012038BD002038BD162351
:103E10002B604FF0FF3038BD00000020124B1F28F0
:103E200070B51E6808D80D46716C044649B151F84A
:103E3000240041F8245070BD162333604FF0FF304A
:103E400070BD80213046FDF759F80146706440B1DD
:103E5000031F00F17C0C002243F8042F6345FBD1C3
:103E6000E5E74FF0FF3070BD0000002038B50B4B88
:103E70001D686C6C0CB1002038BD80212846FDF710
:103E80003DF8686438B1031F00F17C0243F8044F29
:103E90009342FBD1EFE74FF0FF3038BD0000002028
:103EA00038B5174B1F281D6826D86A6C044682B1A6
:103EB00052F8243002EB84024BB1591C1AD0012B6A
:103EC00016D00025204615609847284638BD0120A9
:103ED00038BD80212846FDF711F80246686458B1C4
:103EE000031F00217C3043F8041F8342FBD1DFE72E
:103EF000032038BD022038BD4FF0FF3038BD00BF71
:103F00000000002070B50C46084D034600262046F0
:103F100011461C462E6000F0A1FF431C00D070BD6E
:103F20002B68002BFBD0236070BD00BF2004002055
:103F300000F092BF01F144032DE9F0410C46496BBA
:103F4000994214D0A66B77003A46FFF751F8054620
:103F500040B300EB0608014632464046FCF79CFBA6
:103F6000C4E90D57C4F800800020BDE8F0814FF48B
:103F70008061FCF7C3FFA8B194F846304FF480622B
:103F8000C4E90D0280F8FF3394F8453080F8FE3321
:103F900094F8442080F8FD2300F2FD3323600020D4
:103FA000BDE8F0814FF0FF30DFE700BF70B54C1C7B
:103FB0006AD00E460546144610B18369002B2FD0F7
:103FC000334B9C4231D0334B9C4230D0324B9C42DD
:103FD00008BFEC68B4F90C3023F020035807A38124
:103FE0009AB206D4D1064FD512073BD443F004034E
:103FF000A381636BF6B2E3B16268A36B9A4205DBFF
:1040000021462846FFF796FF00283DD123685A1E17
:10401000226003F8016C636801336360304670BD51
:10402000FEF760FC1A4B9C42CDD16C68D2E7AC68BD
:10403000D0E7236922682BB1934203D212F8013CE6
:10404000B3421BD0616821642346E26304F144015A
:104050000322A263616303F8466F0122C4E90032C0
:10406000304670BD21462846FEF7D6FA60B9B4F94D
:104070000C30A06023F00803A061B7E76368013A41
:104080000133C4E90023C9E74FF0FF36C6E700BF9C
:10409000300D0108100D0108F00C010810B4044C9B
:1040A00003460A4620685DF8044B1946FFF77EBFB9
:1040B000000000207BB972B90029BEBF00204FF07C
:1040C000004106E008BF00281CBF6FF000414FF020
:1040D000FF3000F0A7B9ADF1080C6DE904CE00295E
:1040E00009DB002B1ADB00F035F8DDF804E0DDE930
:1040F000022304B07047404261EB4101002B1BDBFF
:1041000000F028F8DDF804E0DDE9022304B04042C5
:1041100061EB4101524263EB43037047524263EB50
:10412000430300F017F8DDF804E0DDE9022304B0F2
:10413000404261EB41017047524263EB430300F0A0
:1041400009F8DDF804E0DDE9022304B0524263EB34
:10415000430370472DE9F047089D04468E46002B27
:104160004DD18A42944669D9B2FA82F252B101FA2B
:1041700002F3C2F1200120FA01F10CFA02FC41EA3B
:10418000030E94404FEA1C48210CBEFBF8F61FFAC0
:104190008CF708FB16E341EA034306FB07F199425B
:1041A0000AD91CEB030306F1FF3080F01F8199420E
:1041B00040F21C81023E63445B1AA4B2B3FBF8F0E8
:1041C00008FB103344EA034400FB07F7A7420AD96F
:1041D0001CEB040400F1FF3380F00A81A74240F297
:1041E00007816444023840EA0640E41B00261DB102
:1041F000D4400023C5E900433146BDE8F0878B4237
:1042000009D9002D00F0EF800026C5E900013046F5
:104210003146BDE8F087B3FA83F6002E4AD18B42CF
:1042200002D3824200F2F980841A61EB0303012079
:104230009E46002DE0D0C5E9004EDDE702B9FFDE65
:10424000B2FA82F2002A40F09280A1EB0C014FEA10
:104250001C471FFA8CFE0126200CB1FBF7F307FB6D
:10426000131140EA01410EFB03F0884208D91CEB10
:10427000010103F1FF3802D2884200F2CB804346AD
:10428000091AA4B2B1FBF7F007FB101144EA01448C
:104290000EFB00FEA64508D91CEB040400F1FF311B
:1042A00002D2A64500F2BB800846A4EB0E0440EA09
:1042B00003409CE7C6F12007B34022FA07FC4CEA12
:1042C000030C20FA07F401FA06F31C43F9404FEA05
:1042D0001C4900FA06F3B1FBF9F8200C1FFA8CFE1A
:1042E00009FB181140EA014108FB0EF0884202FA6E
:1042F00006F20BD91CEB010108F1FF3A80F088802F
:10430000884240F28580A8F102086144091AA4B2EB
:10431000B1FBF9F009FB101144EA014100FB0EFE6C
:104320008E4508D91CEB010100F1FF346CD28E459B
:104330006AD90238614440EA0840A0FB0294A1EB2C
:104340000E01A142C846A64656D353D05DB1B3EB89
:10435000080261EB0E0101FA07F722FA06F3F140B9
:104360001F43C5E9007100263146BDE8F087C2F160
:104370002003D8400CFA02FC21FA03F391400143D8
:104380004FEA1C471FFA8CFEB3FBF7F007FB103611
:104390000B0C43EA064300FB0EF69E4204FA02F4BD
:1043A00008D91CEB030300F1FF382FD29E422DD910
:1043B000023863449B1B89B2B3FBF7F607FB163345
:1043C00041EA034106FB0EF38B4208D91CEB0101C5
:1043D00006F1FF3816D28B4214D9023E6144C91A45
:1043E00046EA004638E72E46284605E70646E3E655
:1043F0001846F8E64B45A9D2B9EB020864EB0C0E5F
:104400000138A3E74646EAE7204694E74046D1E76D
:10441000D0467BE7023B614432E7304609E764441B
:10442000023842E7704700BF08B50268034B9A4262
:1044300000D008BD03F0B4F8FBE700BF0010004057
:1044400072B6FEE700B597B04422002105A8FCF73C
:10445000BDF90023009301930293039304934FF457
:10446000007004F04BFF00282FD104F037FF1A4AE8
:10447000D2F8903023F01803C2F89030142305933B
:10448000012307930C9300220D9260220E920222C8
:10449000109211931293182313931492159205A856
:1044A00003F03AF998B90F230093032301930023F3
:1044B0000293039304930221684603F09BFC40B9E6
:1044C00003F0ACFE17B05DF804FBFFF7B9FFFFF790
:1044D000B7FFFFF7B5FF00BF0010024008B503F0BB
:1044E00050F8FFF7AFFF00F02BF800F0C3F900F031
:1044F00019F900F05BF900F0DBFC00F005FD00F0BD
:104500009BFB0BF0E5F80BF059FB0C4B9A6842F063
:1045100010029A609A6842F480629A609A6842F443
:1045200000629A6003F04EF807F0A8FD00F0C0F8B2
:104530000BF02CF807F0B4FDFEE700BF002004E00C
:10454000F0B58BB000240594069407940894099460
:10455000494BDA6C42F00402DA64DA6C02F00402CD
:104560000192019ADA6C42F00102DA64DA6C02F02C
:1045700001020292029ADA6C42F00202DA64DA6C08
:1045800002F002020392039ADA6C42F08002DA64CB
:10459000DB6C03F080030493049B01224FF4004181
:1045A0004FF0904003F0A7FF344E01221021304617
:1045B00003F0A1FF032505954FF40413069301238F
:1045C000079305A94FF0904003F030FE3023059388
:1045D0000695079405A94FF0904003F027FE4FF48D
:1045E000807305934FF444130693079405A94FF085
:1045F000904003F01BFE4FF40043059311270697EC
:104600000794089405A94FF0904003F00FFE102383
:10461000059306970794089405A9304603F006FE13
:10462000E02305934FF488130693079405A93046B9
:1046300003F0FCFD082305930695079405A910488F
:1046400003F0F4FD22460521062004F0B9FE062001
:1046500004F0EEFE22460521072004F0B1FE0720FB
:1046600004F0E6FE22460521172004F0A9FE1720DB
:1046700004F0DEFE0BB0F0BD001002400004004864
:10468000001C004800B585B000F082FC03E007483C
:10469000C36801A998474FF0FF33002201A90348DE
:1046A000806807F0AEFE0028F5D1F0E71002002088
:1046B00030B585B000240094019402940394134B08
:1046C0000093684607F074FD114B1860114A2146AB
:1046D000114807F001FD114D28600BF03BFA104C1A
:1046E000A0600BF015F8E0600BF03AFFA0610CF051
:1046F00055F9E0610BF076FD20620CF0E7F92061DE
:1047000028680BF085F8606005B030BDBC0D01086D
:1047100084060020D40D010885460008800600208C
:104720002052002008B50B480B4B03600023436068
:1047300083604FF6FF724261036243628362C36229
:104740000363436304F07AFF00B908BDFFF778FE06
:10475000FBE700BF88060020007C004010B58EB04B
:1047600004463422002101A8FCF730F822680D4BE2
:104770009A4201D00EB010BD4FF40073019301A80E
:1047800003F032FC50B9084B9A6D42F000429A6532
:104790009B6D03F000430093009BEBE7FFF750FE97
:1047A000F1E700BF007C00400010024008B50A4855
:1047B0000A4B03600123436083600023C360182217
:1047C000026143618361C361036205F0F9F900B9D5
:1047D00008BDFFF735FEFBE7C4060020001000A06F
:1047E00070B588B000230393049305930693079351
:1047F00002681E4B9A4201D008B070BD03F12043FD
:1048000003F500331A6D42F480721A651A6D02F4D2
:1048100080720092009ADA6C42F00102DA64DA6C7B
:1048200002F001020192019ADA6C42F00202DA64AB
:10483000DB6C03F002030293029BCC23039302265A
:104840000496032406940A25079503A94FF0904087
:1048500003F0ECFC0394049600230593069407955B
:1048600003A9034803F0E2FCC6E700BF001000A064
:104870000004004800B587B000230193029303931E
:104880000493059300932248224A026083607F22AA
:10489000C260FF22026143618361C3614FF08042C5
:1048A0000262436205F04AFA30BB00228DF8042010
:1048B0008DF805208DF806200492059201A9144870
:1048C00005F0A3FAD8B901238DF800308DF8013036
:1048D0008DF8023000228DF8032069460C4805F05F
:1048E000F8FA78B9002304221946094805F092FB2A
:1048F00058B907B05DF804FBFFF7A2FDD5E7FFF755
:104900009FFDE0E7FFF79CFDECE7FFF799FDF0E77F
:10491000100700200028004010B58EB00446342255
:10492000002101A8FBF752FF2268114B9A4201D0E7
:104930000EB010BD4FF4003301934FF480730D930C
:1049400001A803F051FB78B90A4AD2F8903043F439
:104950000043C2F8903000220521032004F030FD0E
:10496000032004F065FDE3E7FFF76AFDECE700BF15
:1049700000280040001002402DE9F04194B034229C
:10498000002102A8FBF722FF4023029302A803F0B4
:104990002BFB1A4CE36C43F00103E364E36C03F07C
:1049A00001030093009B4FF400730F934FF0120824
:1049B000CDF8408000271197032612960425139501
:1049C0000FA94FF0904003F031FC4FF480630F9338
:1049D000CDF840801197129613950FA94FF0904093
:1049E00003F024FCA36D43F40013A365A36D03F44B
:1049F00000130193019B14B0BDE8F0810010024048
:104A000008B5094A936D23F4001393654FF40071C0
:104A10004FF0904003F0E8FC4FF480614FF090407D
:104A200003F0E2FC08BD00BF001002400B4B1B6806
:104A30007BB1013B094A13600BB10020704710B5F0
:104A4000074C2046FFF7DCFF204603F0F3FF10B9C8
:104A500010BD002070476FF00700F9E73C07002009
:104A60004007002008B50A464FF480530146044829
:104A700004F036FB00B908BD6FF00200FBE700BF91
:104A80004007002010B584B04FF480540294019385
:104A9000009201230A460146084804F075F910B94E
:104AA000002004B010BD054804F0BCFB042802D06F
:104AB0006FF00300F5E76FF06500F2E740070020B4
:104AC00010B584B04FF480540294019300920123F6
:104AD0000A460146084804F02BFA10B9002004B039
:104AE00010BD054804F09EFB042802D06FF00300BF
:104AF000F5E76FF06500F2E74007002010B584B0DD
:104B00004FF4805402940193009202230A46014616
:104B1000084804F039F910B9002004B010BD054868
:104B200004F080FB042802D06FF00300F5E76FF07B
:104B30006500F2E74007002010B584B04FF48054C0
:104B400002940193009202230A460146084804F0A9
:104B5000EFF910B9002004B010BD054804F062FB65
:104B6000042802D06FF06500F5E76FF00300F2E76C
:104B70004007002000B583B013464FF480520092E6
:104B80000A460146094803F06FFF18B9002003B038
:104B90005DF804FB054804F045FB042802D06FF0E3
:104BA0006500F4E76FF00300F1E700BF4007002065
:104BB00000B583B013464FF4805200920A46014676
:104BC000094804F023F818B9002003B05DF804FB8D
:104BD000054804F027FB042802D06FF06500F4E7D5
:104BE0006FF00300F1E700BF4007002038B504462E
:104BF0000F4B03600F4B4360002383600122C260B0
:104C0000036143618361C361036203F0AEFE054645
:104C100000B101250021204604F006FB00B101256A
:104C20000021204604F02EFB00B10125284638BDA6
:104C3000005400404B199000124B134A1A60134A5B
:104C40001368591C11600BB10020704710B50D4856
:104C500004F0E5FA08B1002010BD0A4C2046FFF729
:104C60008BFE2046FFF7C2FF48B90021204604F022
:104C7000DBFA08B90020EFE76FF00700ECE76FF010
:104C80000700E9E740070020005400403C070020EF
:104C9000FEE7FEE7FEE7FEE7FEE7704708B50AF02D
:104CA0004BFB034805F068FA0AF06AFB08BD00BF39
:104CB0001007002008B50AF03FFB012003F020FC9C
:104CC0000AF05EFB08BD08B50AF036FB022003F0CF
:104CD00017FC0AF055FB08BD08B50AF02DFB202093
:104CE00003F00EFC402003F00BFC802003F008FCD6
:104CF0004FF4807003F004FC0AF042FB08BD000092
:104D000008B50AF019FB034805F088FA0AF038FBE9
:104D100008BD00BF9407002008B50AF00DFB03484A
:104D200001F09AFA0AF02CFB08BD00BFF80C002035
:104D300000B583B00D4B1A6E42F001021A661A6E6E
:104D400002F001020092009A9A6D42F080529A6538
:104D50009B6D03F080530193019B00220F216FF0A4
:104D6000010004F02DFB03B05DF804FB00100240CD
:104D700030B589B00446214B9A6D42F010029A6515
:104D80009B6D03F010030193019B02A903A803F09C
:104D90000DF9069BCBB903F0F7F803461848A0FBC2
:104DA00003239B0C013B1748174A026040F2E7328D
:104DB000C2604360002303618360836105F02CFBC4
:104DC000054630B1284609B030BD03F0DDF8430098
:104DD000E4E70C4805F0E8F905460028F2D1362052
:104DE00004F026FB0F2C01D90125EBE70022214618
:104DF000362004F0E5FA054B1C60E3E700100240A2
:104E000083DE1B4394070020001000407001002047
:104E100010B503460C4A0D490D48006840B10C48D6
:104E200000680344521A934206D8094A136010BD21
:104E30000748084C0460F2E7FBF758FA0C230360BC
:104E40004FF0FF30F3E700BF00A000200004000097
:104E5000E0070020D85B00200120704708B5FBF771
:104E600045FA162303604FF0FF3008BD08B54FF038
:104E7000FF31FFF7F3FFFEE770B50C46164600253D
:104E800006E0AFF30080214601F8010B01350C4626
:104E9000B542F6DB304670BD4FF0FF3070474FF43F
:104EA00000534B600020704701207047002070477E
:104EB00008B50848084B0360002303714371436140
:104EC00083610123036205F0DBFA00B908BDFFF737
:104ED000B7FAFBE7E8070020003002400268094B00
:104EE0009A4200D0704782B0A3F500539A6C42F406
:104EF00080529A649B6C03F480530193019B02B02F
:104F0000704700BF0030024008B50548054B0360FC
:104F100005F032FB00B908BDFFF792FAFBE700BFCE
:104F20000C0800200008065010B58EB0044634224C
:104F3000002101A8FBF74AFC22680E4B9A4201D0DF
:104F40000EB010BD4FF4802301934FF000630C931B
:104F500001A803F049F850B9074BDA6C42F48022FB
:104F6000DA64DB6C03F480230093009BE8E7FFF72F
:104F700067FAF1E70008065000100240034AD2F831
:104F8000883043F47003C2F88830704700ED00E0C9
:104F900008B500220F49104807F068FD70B90F49A5
:104FA0000D4807F07AFD60B90D490B4808F0ACFCDC
:104FB00050B9094807F08BFD48B908BDFFF740FA22
:104FC000EDE7FFF73DFAEFE7FFF73AFAF1E7FFF712
:104FD00037FAF2E7D00000201C0800207C010020F6
:104FE0003001002012230B8000487047FC00002095
:104FF00004230B8000487047100100200C230B8015
:1050000000487047F0000020002393421ED200B5F4
:1050100010E00CF1370C01F813C000014FEA430C0B
:105020000CF1010C4FF0000E01F80CE00133DBB283
:10503000934209D24FEA107CB0F1204FE9D20CF133
:10504000300C01F813C0E8E75DF804FB704700007E
:1050500038B50B4BD3F89005D3F89445D3F8983571
:10506000C01800D138BD074D0822A91CFFF7CCFF9E
:10507000042205F112012046FFF7C6FFF2E700BF48
:105080000070FF1F1401002008B51A230B80FFF7E2
:10509000DFFF014808BD00BF1401002008B50A4623
:1050A00028B90549054808F034FA034808BD024903
:1050B000024808F02EFAF8E7F80A0020400E01082E
:1050C00010B50A46034C2146034808F022FA204650
:1050D00010BD00BFF80A0020540E010808B50A46AA
:1050E00028B90549054808F014FA034808BD0249E3
:1050F000024808F00EFAF8E7F80A0020680E0108E6
:1051000008B50A4628B90549054808F002FA0348D7
:1051100008BD0249024808F0FCF9F8E7F80A002047
:10512000740E01080020704700207047002070476F
:1051300008B50AF09DFF08BD08B50AF09BFF08BD41
:1051400008B50AF0AFFF08BD08B50AF0BFFF08BDFB
:1051500008B5FFF777F908BD30B595B004460021D2
:105160000F911091119112911391342202A8FBF723
:105170002DFB22681E4B9A4201D015B030BD4FF472
:10518000005302934FF000630C9302A802F02CFF2F
:1051900058BB184CE36C43F00103E364E36C03F089
:1051A00001030093009B4FF4C0530F93022310930D
:1051B00000251195032312930A2313930FA94FF08F
:1051C000904003F033F8A36D43F08063A365A36DB3
:1051D00003F080630193019B2A460521432004F0DC
:1051E000EFF8432004F024F9C7E7FFF729F9D0E7E7
:1051F000006800400010024008B500F52671D0F8A4
:10520000DC0207F07AFC08BD08B501EB810300EB76
:10521000C303D3F86421D0F8DC0207F000FD08BD19
:1052200008B501EB810300EBC3035A6AD0F8DC0236
:1052300007F058FD08BD08B5D0F8DC0207F0DAFC2D
:1052400008BD10B504468379022B09D10121D4F899
:10525000DC0207F0B0FCD4F8DC0207F07AFC10BDE9
:10526000FFF7EEF8F2E7000010B50446D0F8DC02D4
:1052700007F0A4FCA37A23B1024A136943F00603A2
:10528000136110BD00ED00E010B50446837A23B928
:10529000D4F8DC0207F0A1FC10BD044A136923F026
:1052A00006031361FFF754FFF2E700BF00ED00E0D3
:1052B00010B5044604F06AF81A48C0F8DC42C4F895
:1052C000C802194B03600823037102238371037220
:1052D000002343728372C372037300F083FAE8B948
:1052E000182300221146D4F8C80201F0EDF9582322
:1052F00000228021D4F8C80201F0E6F998230022A8
:105300008121D4F8C80201F0DFF9D823002201215D
:10531000D4F8C80201F0D8F9002010BDFFF790F8CA
:10532000DEE700BFF80C00200068004008B5D0F8A8
:10533000C80200F0D2FA032805D8DFE800F0030421
:105340000203012008BD0320FCE708B594461A4675
:105350006346D0F8C80201F058F8032805D8DFE802
:1053600000F003040203012008BD0320FCE708B598
:10537000D0F8C80201F08CF8032805D8DFE800F067
:1053800003040203012008BD0320FCE708B5D0F8A0
:10539000C80201F07EF9032805D8DFE800F0030415
:1053A0000203012008BD0320FCE708B5D0F8C802BD
:1053B00001F0F0F8032805D8DFE800F00304020349
:1053C000012008BD0320FCE708B5D0F8C80201F0B1
:1053D00021F9032805D8DFE800F0030402030120C7
:1053E00008BD0320FCE7D0F8C83211F0800F08D1C7
:1053F00001F07F0101EB810103EBC10191F8520142
:10540000704701F07F0101EB810103EBC101887C52
:10541000704708B5D0F8C80200F00BFF032805D884
:10542000DFE800F003040203012008BD0320FCE7CD
:1054300008B5D0F8C80201F087F8032805D8DFE8DE
:1054400000F003040203012008BD0320FCE708B5B7
:10545000D0F8C80201F052F8032805D8DFE800F0C0
:1054600003040203012008BD0320FCE708B5D0F8BF
:10547000C80201F060F808BD10B5044611B1012959
:105480000FD010BD837A23B9D4F8DC0207F0A5FB56
:10549000F7E7FFF75DFE094A136923F0060313617E
:1054A000F2E7D0F8DC0207F089FBA37A002BE8D002
:1054B000024A136943F006031361E2E700ED00E0DE
:1054C00000487047D80F0020704710B544688068C6
:1054D000A04710BD10B504688068A04710BD08B58E
:1054E0000A4601231721FFF7F0FF00B908BD4FF06E
:1054F000FF30FBE708B50A4601230021FFF7E5FF6F
:1055000000B908BD4FF0FF30FBE708B50A4601239C
:105510000021FFF7DFFF00B908BD4FF0FF30FBE7C8
:1055200008B58368A620984708BD10B58C4611467B
:1055300004696246A620A04710BD2DE9F84F064633
:105540008A461746984615E04546F4682B4652466B
:105550003946A620A047834690B1AA442F44BFB243
:10556000A8EB05081FFA88F8B8F1000F1ED0BBF1B0
:10557000000F1BD1B8F5807FE6D94FF48075E4E7C2
:10558000736998478146B3680121A620984704466D
:1055900073699847A0EB0900B0F5A07F01D2002CF9
:1055A000F1D1002CD9D06FF0020BD6E75846BDE8F8
:1055B000F88F10B511F4005F03D00469A620A0474E
:1055C00010BD0469AE20A047FAE7F8B5054611F40E
:1055D000005F18D1C468AE20A0470746B8B96B6910
:1055E00098470646AB680121AE20984704466B6990
:1055F0009847831BB3F5A07F01D2002CF2D134B1C0
:105600006FF0020703E0C468A620A04707463846AB
:10561000F8BD08B51830FFF762FF08BD10B582B0BD
:105620000446436A23B101236362002002B010BD27
:105630000DF10701FFF7EDFF9DF80730242BF2D0A5
:10564000262BF0D04FF0FF30F0E710B582B00C46BB
:105650000DF107011830FFF74DFF10B99DF8073025
:10566000238002B010BD00B583B0ADF806100DF177
:1056700006011830FFF749FF03B05DF804FB000096
:10568000B0B108B503460A68026048685860C86847
:10569000D860086918618868986049695961094942
:1056A000D961094999611B622AB1904730B908BD97
:1056B0004FF0FF3070474FF0FF30F8E74FF0FF300A
:1056C000F5E700BFB3550008CB55000838B512F414
:1056D000804F43D00468B4F8503091F800C04FEACE
:1056E000CC0E1EFA83F32344B3F80244C4F3090436
:1056F0008B69A34228D31B1B8B618B697BB905681F
:1057000035F82C309BB223F4804323F0700383F4EC
:10571000005343F4004343F0800325F82C3012F08B
:10572000400F0ED002680D7832F825309BB223F47A
:10573000E04323F0700343F4004343F0C00322F836
:10574000253024B9204638BD00238B61D5E7234698
:105750000A894969006801F0FCFEF3E70468B4F8BF
:10576000503091F800C04FEACC0E1EFA83F3234468
:10577000B3F80644C4F309048B69A3422FD31B1B5F
:105780008B618B697BB9056835F82C309BB223F4AB
:10579000804323F0700383F4005343F4004343F049
:1057A000800325F82C3012F0400F0FD1026891F8D9
:1057B00000C032F82C309BB223F4E04323F0700396
:1057C00043F4004343F0C00322F82C30002CB9D03E
:1057D00023464A894969006801F0BBFEB2E700230D
:1057E0008B61CEE738B5002875D0044690F8913229
:1057F000A3B1032384F8913200236371206800F081
:10580000A5FF234653F8040B0ECB00F08FFF50B1D9
:10581000022384F891320125284638BD80F8903261
:10582000FFF79AFCE5E70021206800F099FF0346A6
:1058300008B9024615E0022384F891320125EBE70E
:1058400002EB820104EBC101012048740A740020BC
:10585000C87408624862013202EB8201C9006050DC
:10586000D2B220799042EBD816E003EB830204EB2E
:10587000C202002182F8511182F8503182F853118E
:10588000C2F86011C2F8641103EB830204EBC20298
:10589000C2F868110133DBB29842E6D8234653F8C8
:1058A000040B0ECB00F05EFF054658B9002363736E
:1058B000012384F89132E37A012B08D0206801F0AB
:1058C00064FBA9E7022384F891320125A4E720466E
:1058D00000F016FFF2E701259EE790F89032012BC9
:1058E0000ED010B50446012380F89032006800F015
:1058F00024FF206801F03EFB002084F8900210BDD8
:105900000220704770B505460C46164612F0400F4F
:1059100000F020810268B2F8503009784FEAC10CDB
:105920001CFA83F31344B3F80224C2F30902A369F7
:1059300093422CD99B1AA361A06958B316F4804FE7
:105940000DD0286830F821309BB223F4E04323F0D7
:10595000700343F4404343F0800320F8213094F86F
:105960002430012B00F08D802A68217832F8213014
:105970009BB223F4E04323F0400383F0300343F46D
:10598000004343F0800322F82130002070BD002343
:10599000A361D1E76378002B48D12A68B2F8503070
:1059A00012FA83F36344B3F80224C2F30902A3F8A2
:1059B0000224B3F802246FEA42426FEA524292B2E2
:1059C000A3F8022429686278002A3BD1B1F850304C
:1059D00011FA83F3227803EBC203B3F80624C2F36F
:1059E0000902A3F80624B3F806246FEA42426FEADC
:1059F000524292B2A3F80624E378022B2FD02178EA
:105A00002846FFF70DFC16F4804FBED02A68217897
:105A100032F821309BB223F4E04323F0700343F4C7
:105A2000404343F0800322F82130AEE7012BC9D177
:105A30002A68B2F8503012FA83F363440022A3F8C4
:105A40000224BFE7012AD7D1B1F8503011FA83F30D
:105A5000217803EBC1030022A3F80624CCE72A68CF
:105A6000217832F821309BB223F4E04323F0400345
:105A700083F0200343F4004343F0800322F82130F5
:105A8000BDE7636913446361E3691344E361216A19
:105A9000236999421DD3C91A21626278002A44D130
:105AA0002968B1F8502011FA82F2217802EBC10284
:105AB000B2F80214C1F30901A2F80214ABB9B2F8AA
:105AC00002146FEA41416FEA514189B2A2F802140F
:105AD0002DE021B9002384F824301346DDE70023AC
:105AE00084F8243023620B46D7E73E2B0DD85908A3
:105AF00013F0010F00D00131B2F8020480B2890224
:105B000089B20143A2F8021411E0580913F01F0FE3
